{
  "_format": "hh-sol-artifact-1",
  "contractName": "claimContract",
  "sourceName": "contracts/ClaimContract.sol",
  "abi": [
    {
      "inputs": [
        {
          "internalType": "address",
          "name": "_testToken",
          "type": "address"
        }
      ],
      "stateMutability": "nonpayable",
      "type": "constructor"
    },
    {
      "anonymous": false,
      "inputs": [
        {
          "indexed": true,
          "internalType": "address",
          "name": "walletAddress",
          "type": "address"
        },
        {
          "indexed": false,
          "internalType": "uint256",
          "name": "tokenAmount",
          "type": "uint256"
        }
      ],
      "name": "Claim",
      "type": "event"
    },
    {
      "anonymous": false,
      "inputs": [
        {
          "indexed": true,
          "internalType": "address",
          "name": "previousOwner",
          "type": "address"
        },
        {
          "indexed": true,
          "internalType": "address",
          "name": "newOwner",
          "type": "address"
        }
      ],
      "name": "OwnershipTransferred",
      "type": "event"
    },
    {
      "anonymous": false,
      "inputs": [
        {
          "indexed": true,
          "internalType": "address",
          "name": "walletAddress",
          "type": "address"
        },
        {
          "indexed": false,
          "internalType": "uint256",
          "name": "tokenAmount",
          "type": "uint256"
        }
      ],
      "name": "SetRewards",
      "type": "event"
    },
    {
      "inputs": [
        {
          "internalType": "uint256",
          "name": "claimAmount",
          "type": "uint256"
        }
      ],
      "name": "claim",
      "outputs": [],
      "stateMutability": "nonpayable",
      "type": "function"
    },
    {
      "inputs": [],
      "name": "owner",
      "outputs": [
        {
          "internalType": "address",
          "name": "",
          "type": "address"
        }
      ],
      "stateMutability": "view",
      "type": "function"
    },
    {
      "inputs": [],
      "name": "renounceOwnership",
      "outputs": [],
      "stateMutability": "nonpayable",
      "type": "function"
    },
    {
      "inputs": [
        {
          "internalType": "address",
          "name": "",
          "type": "address"
        }
      ],
      "name": "rewards",
      "outputs": [
        {
          "internalType": "uint256",
          "name": "",
          "type": "uint256"
        }
      ],
      "stateMutability": "view",
      "type": "function"
    },
    {
      "inputs": [
        {
          "internalType": "address",
          "name": "walletAddress",
          "type": "address"
        },
        {
          "internalType": "uint256",
          "name": "tokenAmount",
          "type": "uint256"
        }
      ],
      "name": "setRewards",
      "outputs": [],
      "stateMutability": "nonpayable",
      "type": "function"
    },
    {
      "inputs": [
        {
          "internalType": "address",
          "name": "user",
          "type": "address"
        },
        {
          "internalType": "bool",
          "name": "flag",
          "type": "bool"
        }
      ],
      "name": "setWhitelist",
      "outputs": [],
      "stateMutability": "nonpayable",
      "type": "function"
    },
    {
      "inputs": [],
      "name": "testToken",
      "outputs": [
        {
          "internalType": "address",
          "name": "",
          "type": "address"
        }
      ],
      "stateMutability": "view",
      "type": "function"
    },
    {
      "inputs": [
        {
          "internalType": "address",
          "name": "newOwner",
          "type": "address"
        }
      ],
      "name": "transferOwnership",
      "outputs": [],
      "stateMutability": "nonpayable",
      "type": "function"
    },
    {
      "inputs": [
        {
          "internalType": "address",
          "name": "",
          "type": "address"
        }
      ],
      "name": "whitelist",
      "outputs": [
        {
          "internalType": "bool",
          "name": "",
          "type": "bool"
        }
      ],
      "stateMutability": "view",
      "type": "function"
    }
  ],
  "bytecode": "0x608060405234801561001057600080fd5b506040516108fd3803806108fd83398101604081905261002f916100af565b600080546001600160a01b031916339081178255604051909182917f8be0079c531659141344cd1fd0a4f28419497f9722a3daafe3b4186f6b6457e0908290a350600280546001600160a01b0319166001600160a01b0392909216919091179055336000908152600360205260409020805460ff191660011790556100df565b6000602082840312156100c157600080fd5b81516001600160a01b03811681146100d857600080fd5b9392505050565b61080f806100ee6000396000f3fe608060405234801561001057600080fd5b50600436106100935760003560e01c8063715018a611610066578063715018a61461011e57806380c15aaa146101265780638da5cb5b146101395780639b19251a1461014a578063f2fde38b1461017d57600080fd5b80630700037d14610098578063379607f5146100cb57806353d6fd59146100e05780636895179d146100f3575b600080fd5b6100b86100a636600461066a565b60016020526000908152604090205481565b6040519081526020015b60405180910390f35b6100de6100d9366004610685565b610190565b005b6100de6100ee3660046106ac565b61031e565b600254610106906001600160a01b031681565b6040516001600160a01b0390911681526020016100c2565b6100de610373565b6100de6101343660046106e3565b6103e7565b6000546001600160a01b0316610106565b61016d61015836600461066a565b60036020526000908152604090205460ff1681565b60405190151581526020016100c2565b6100de61018b36600461066a565b6104d5565b336000908152600160205260409020548111156101e95760405162461bcd60e51b81526020600482015260126024820152714e6f7420656e6f756768207265776172642160701b60448201526064015b60405180910390fd5b3360009081526003602052604090205460ff1661023d5760405162461bcd60e51b81526020600482015260126024820152714e6f7420656e6f756768207265776172642160701b60448201526064016101e0565b60025460405163a9059cbb60e01b8152336004820152602481018390526001600160a01b039091169063a9059cbb906044016020604051808303816000875af115801561028e573d6000803e3d6000fd5b505050506040513d601f19601f820116820180604052508101906102b2919061070d565b50336000908152600160205260409020546102cd908261050b565b33600081815260016020526040908190209290925590517f47cee97cb7acd717b3c0aa1435d004cd5b3c8c57d70dbceb4e4458bbd60e39d4906103139084815260200190565b60405180910390a250565b6000546001600160a01b031633146103485760405162461bcd60e51b81526004016101e09061072a565b6001600160a01b03919091166000908152600360205260409020805460ff1916911515919091179055565b6000546001600160a01b0316331461039d5760405162461bcd60e51b81526004016101e09061072a565b600080546040516001600160a01b03909116907f8be0079c531659141344cd1fd0a4f28419497f9722a3daafe3b4186f6b6457e0908390a3600080546001600160a01b0319169055565b6000546001600160a01b031633146104115760405162461bcd60e51b81526004016101e09061072a565b6000811161041e57600080fd5b6002546040516340c10f1960e01b8152306004820152602481018390526001600160a01b03909116906340c10f1990604401600060405180830381600087803b15801561046a57600080fd5b505af115801561047e573d6000803e3d6000fd5b505050506001600160a01b03821660008181526001602090815260409182902084905590518381527f95051894a67d82afeb7dbfe0c61c666824b27b6d6f7fed37b8b64ffab6604d3f910160405180910390a25050565b6000546001600160a01b031633146104ff5760405162461bcd60e51b81526004016101e09061072a565b61050881610554565b50565b600061054d83836040518060400160405280601e81526020017f536166654d6174683a207375627472616374696f6e206f766572666c6f770000815250610614565b9392505050565b6001600160a01b0381166105b95760405162461bcd60e51b815260206004820152602660248201527f4f776e61626c653a206e6577206f776e657220697320746865207a65726f206160448201526564647265737360d01b60648201526084016101e0565b600080546040516001600160a01b03808516939216917f8be0079c531659141344cd1fd0a4f28419497f9722a3daafe3b4186f6b6457e091a3600080546001600160a01b0319166001600160a01b0392909216919091179055565b600081848411156106385760405162461bcd60e51b81526004016101e0919061075f565b50600061064584866107b4565b95945050505050565b80356001600160a01b038116811461066557600080fd5b919050565b60006020828403121561067c57600080fd5b61054d8261064e565b60006020828403121561069757600080fd5b5035919050565b801515811461050857600080fd5b600080604083850312156106bf57600080fd5b6106c88361064e565b915060208301356106d88161069e565b809150509250929050565b600080604083850312156106f657600080fd5b6106ff8361064e565b946020939093013593505050565b60006020828403121561071f57600080fd5b815161054d8161069e565b6020808252818101527f4f776e61626c653a2063616c6c6572206973206e6f7420746865206f776e6572604082015260600190565b600060208083528351808285015260005b8181101561078c57858101830151858201604001528201610770565b8181111561079e576000604083870101525b50601f01601f1916929092016040019392505050565b6000828210156107d457634e487b7160e01b600052601160045260246000fd5b50039056fea26469706673582212201ab76d856041ba2d4f3215f84db25cd2df4855b13f8ef507200fc5bd6cc19d2864736f6c634300080d0033",
  "linkReferences": {},
  "deployedLinkReferences": {}
}